{
  "address": "0x059059273aB694771e2B2E1B88Cb3B31D8676E34",
  "abi": [
    {
      "inputs": [],
      "stateMutability": "nonpayable",
      "type": "constructor"
    },
    {
      "anonymous": false,
      "inputs": [
        {
          "indexed": true,
          "internalType": "address",
          "name": "owner",
          "type": "address"
        },
        {
          "indexed": true,
          "internalType": "address",
          "name": "spender",
          "type": "address"
        },
        {
          "indexed": true,
          "internalType": "uint256",
          "name": "id",
          "type": "uint256"
        }
      ],
      "name": "Approval",
      "type": "event"
    },
    {
      "anonymous": false,
      "inputs": [
        {
          "indexed": true,
          "internalType": "address",
          "name": "owner",
          "type": "address"
        },
        {
          "indexed": true,
          "internalType": "address",
          "name": "operator",
          "type": "address"
        },
        {
          "indexed": false,
          "internalType": "bool",
          "name": "approved",
          "type": "bool"
        }
      ],
      "name": "ApprovalForAll",
      "type": "event"
    },
    {
      "anonymous": false,
      "inputs": [
        {
          "indexed": false,
          "internalType": "uint256",
          "name": "tokenId",
          "type": "uint256"
        },
        {
          "indexed": false,
          "internalType": "bytes32",
          "name": "hashHandle",
          "type": "bytes32"
        }
      ],
      "name": "TokenMinted",
      "type": "event"
    },
    {
      "anonymous": false,
      "inputs": [
        {
          "indexed": true,
          "internalType": "address",
          "name": "from",
          "type": "address"
        },
        {
          "indexed": true,
          "internalType": "address",
          "name": "to",
          "type": "address"
        },
        {
          "indexed": true,
          "internalType": "uint256",
          "name": "id",
          "type": "uint256"
        }
      ],
      "name": "Transfer",
      "type": "event"
    },
    {
      "inputs": [
        {
          "internalType": "address",
          "name": "spender",
          "type": "address"
        },
        {
          "internalType": "uint256",
          "name": "id",
          "type": "uint256"
        }
      ],
      "name": "approve",
      "outputs": [],
      "stateMutability": "nonpayable",
      "type": "function"
    },
    {
      "inputs": [],
      "name": "authorized",
      "outputs": [
        {
          "internalType": "address",
          "name": "",
          "type": "address"
        }
      ],
      "stateMutability": "view",
      "type": "function"
    },
    {
      "inputs": [
        {
          "internalType": "address",
          "name": "owner",
          "type": "address"
        }
      ],
      "name": "balanceOf",
      "outputs": [
        {
          "internalType": "uint256",
          "name": "",
          "type": "uint256"
        }
      ],
      "stateMutability": "view",
      "type": "function"
    },
    {
      "inputs": [],
      "name": "baseURI",
      "outputs": [
        {
          "internalType": "string",
          "name": "",
          "type": "string"
        }
      ],
      "stateMutability": "view",
      "type": "function"
    },
    {
      "inputs": [
        {
          "internalType": "uint256",
          "name": "",
          "type": "uint256"
        }
      ],
      "name": "getApproved",
      "outputs": [
        {
          "internalType": "address",
          "name": "",
          "type": "address"
        }
      ],
      "stateMutability": "view",
      "type": "function"
    },
    {
      "inputs": [],
      "name": "getTotalSupply",
      "outputs": [
        {
          "internalType": "uint256",
          "name": "",
          "type": "uint256"
        }
      ],
      "stateMutability": "view",
      "type": "function"
    },
    {
      "inputs": [
        {
          "internalType": "string",
          "name": "handleString",
          "type": "string"
        }
      ],
      "name": "handleToTokenId",
      "outputs": [
        {
          "internalType": "uint256",
          "name": "",
          "type": "uint256"
        }
      ],
      "stateMutability": "view",
      "type": "function"
    },
    {
      "inputs": [
        {
          "internalType": "address",
          "name": "",
          "type": "address"
        },
        {
          "internalType": "address",
          "name": "",
          "type": "address"
        }
      ],
      "name": "isApprovedForAll",
      "outputs": [
        {
          "internalType": "bool",
          "name": "",
          "type": "bool"
        }
      ],
      "stateMutability": "view",
      "type": "function"
    },
    {
      "inputs": [],
      "name": "lensHubAddress",
      "outputs": [
        {
          "internalType": "address",
          "name": "",
          "type": "address"
        }
      ],
      "stateMutability": "view",
      "type": "function"
    },
    {
      "inputs": [
        {
          "internalType": "uint256",
          "name": "liberateTokenId",
          "type": "uint256"
        },
        {
          "internalType": "uint256",
          "name": "lensProfileId",
          "type": "uint256"
        }
      ],
      "name": "lockProfile",
      "outputs": [],
      "stateMutability": "nonpayable",
      "type": "function"
    },
    {
      "inputs": [
        {
          "internalType": "uint256",
          "name": "",
          "type": "uint256"
        }
      ],
      "name": "lockedId",
      "outputs": [
        {
          "internalType": "uint256",
          "name": "",
          "type": "uint256"
        }
      ],
      "stateMutability": "view",
      "type": "function"
    },
    {
      "inputs": [
        {
          "internalType": "string",
          "name": "handleString",
          "type": "string"
        },
        {
          "internalType": "address",
          "name": "user",
          "type": "address"
        }
      ],
      "name": "mint",
      "outputs": [],
      "stateMutability": "nonpayable",
      "type": "function"
    },
    {
      "inputs": [],
      "name": "name",
      "outputs": [
        {
          "internalType": "string",
          "name": "",
          "type": "string"
        }
      ],
      "stateMutability": "view",
      "type": "function"
    },
    {
      "inputs": [
        {
          "internalType": "uint256",
          "name": "liberateTokenId",
          "type": "uint256"
        }
      ],
      "name": "ownerOf",
      "outputs": [
        {
          "internalType": "address",
          "name": "",
          "type": "address"
        }
      ],
      "stateMutability": "view",
      "type": "function"
    },
    {
      "inputs": [
        {
          "internalType": "address",
          "name": "lensProfileAddress",
          "type": "address"
        }
      ],
      "name": "profileIdOfAddress",
      "outputs": [
        {
          "internalType": "uint256",
          "name": "lensProfileId",
          "type": "uint256"
        }
      ],
      "stateMutability": "view",
      "type": "function"
    },
    {
      "inputs": [
        {
          "internalType": "uint256",
          "name": "_lensProfileId",
          "type": "uint256"
        }
      ],
      "name": "profileOwnerOf",
      "outputs": [
        {
          "internalType": "address",
          "name": "owner",
          "type": "address"
        }
      ],
      "stateMutability": "view",
      "type": "function"
    },
    {
      "inputs": [
        {
          "internalType": "address",
          "name": "from",
          "type": "address"
        },
        {
          "internalType": "address",
          "name": "to",
          "type": "address"
        },
        {
          "internalType": "uint256",
          "name": "id",
          "type": "uint256"
        }
      ],
      "name": "safeTransferFrom",
      "outputs": [],
      "stateMutability": "nonpayable",
      "type": "function"
    },
    {
      "inputs": [
        {
          "internalType": "address",
          "name": "from",
          "type": "address"
        },
        {
          "internalType": "address",
          "name": "to",
          "type": "address"
        },
        {
          "internalType": "uint256",
          "name": "id",
          "type": "uint256"
        },
        {
          "internalType": "bytes",
          "name": "data",
          "type": "bytes"
        }
      ],
      "name": "safeTransferFrom",
      "outputs": [],
      "stateMutability": "nonpayable",
      "type": "function"
    },
    {
      "inputs": [
        {
          "internalType": "address",
          "name": "operator",
          "type": "address"
        },
        {
          "internalType": "bool",
          "name": "approved",
          "type": "bool"
        }
      ],
      "name": "setApprovalForAll",
      "outputs": [],
      "stateMutability": "nonpayable",
      "type": "function"
    },
    {
      "inputs": [
        {
          "internalType": "string",
          "name": "newBaseURI",
          "type": "string"
        }
      ],
      "name": "setBaseURI",
      "outputs": [],
      "stateMutability": "nonpayable",
      "type": "function"
    },
    {
      "inputs": [
        {
          "internalType": "address",
          "name": "_lensHubAddress",
          "type": "address"
        }
      ],
      "name": "setLensHubAddress",
      "outputs": [],
      "stateMutability": "nonpayable",
      "type": "function"
    },
    {
      "inputs": [
        {
          "internalType": "address",
          "name": "newOwner",
          "type": "address"
        }
      ],
      "name": "setOwner",
      "outputs": [],
      "stateMutability": "nonpayable",
      "type": "function"
    },
    {
      "inputs": [
        {
          "internalType": "bytes4",
          "name": "interfaceId",
          "type": "bytes4"
        }
      ],
      "name": "supportsInterface",
      "outputs": [
        {
          "internalType": "bool",
          "name": "",
          "type": "bool"
        }
      ],
      "stateMutability": "view",
      "type": "function"
    },
    {
      "inputs": [],
      "name": "symbol",
      "outputs": [
        {
          "internalType": "string",
          "name": "",
          "type": "string"
        }
      ],
      "stateMutability": "view",
      "type": "function"
    },
    {
      "inputs": [
        {
          "internalType": "uint256",
          "name": "tokenId",
          "type": "uint256"
        }
      ],
      "name": "tokenURI",
      "outputs": [
        {
          "internalType": "string",
          "name": "",
          "type": "string"
        }
      ],
      "stateMutability": "view",
      "type": "function"
    },
    {
      "inputs": [],
      "name": "totalSupply",
      "outputs": [
        {
          "internalType": "uint256",
          "name": "",
          "type": "uint256"
        }
      ],
      "stateMutability": "view",
      "type": "function"
    },
    {
      "inputs": [
        {
          "internalType": "address",
          "name": "from",
          "type": "address"
        },
        {
          "internalType": "address",
          "name": "to",
          "type": "address"
        },
        {
          "internalType": "uint256",
          "name": "id",
          "type": "uint256"
        }
      ],
      "name": "transferFrom",
      "outputs": [],
      "stateMutability": "nonpayable",
      "type": "function"
    }
  ],
  "bytecode": {
    "object": "0x608060405260016009553480156200001657600080fd5b5060408051808201825260088152674c6962657261746560c01b602080830191825283518085019094526005845264119491515160da1b9084015281519192916200006491600091620000ac565b5080516200007a906001906020840190620000ac565b50620000869150503390565b600780546001600160a01b0319166001600160a01b03929092169190911790556200018e565b828054620000ba9062000152565b90600052602060002090601f016020900481019282620000de576000855562000129565b82601f10620000f957805160ff191683800117855562000129565b8280016001018555821562000129579182015b82811115620001295782518255916020019190600101906200010c565b50620001379291506200013b565b5090565b5b808211156200013757600081556001016200013c565b600181811c908216806200016757607f821691505b6020821081036200018857634e487b7160e01b600052602260045260246000fd5b50919050565b612013806200019e6000396000f3fe608060405234801561001057600080fd5b50600436106101b95760003560e01c80635dfadbdb116100f9578063b75d20e711610097578063c4e41b2211610071578063c4e41b22146103e9578063c87b56dd146103f1578063e985e9c514610404578063f481079b1461043257600080fd5b8063b75d20e7146103a3578063b88d4fde146103c3578063c2cfe027146103d657600080fd5b806370a08231116100d357806370a08231146103625780638a571bb21461037557806395d89b4114610388578063a22cb4651461039057600080fd5b80635dfadbdb146103275780636352211e146103475780636c0360eb1461035a57600080fd5b8063195d5a761161016657806342842e0e1161014057806342842e0e146102ce578063456cb7c6146102e15780634c36904f1461030157806355f804b31461031457600080fd5b8063195d5a76146102955780631c351a9d146102a857806323b872dd146102bb57600080fd5b8063095ea7b311610197578063095ea7b31461025657806313af40351461026b57806318160ddd1461027e57600080fd5b806301ffc9a7146101be57806306fdde03146101e6578063081812fc146101fb575b600080fd5b6101d16101cc3660046119b2565b610445565b60405190151581526020015b60405180910390f35b6101ee61052a565b6040516101dd91906119ff565b610231610209366004611a50565b60046020526000908152604090205473ffffffffffffffffffffffffffffffffffffffff1681565b60405173ffffffffffffffffffffffffffffffffffffffff90911681526020016101dd565b610269610264366004611a8b565b6105b8565b005b610269610279366004611ab7565b6106ed565b61028760095481565b6040519081526020016101dd565b6102696102a3366004611ab7565b6107b1565b6102696102b6366004611bae565b610875565b6102696102c9366004611c00565b6109a0565b6102696102dc366004611c00565b610c96565b6007546102319073ffffffffffffffffffffffffffffffffffffffff1681565b61023161030f366004611a50565b610de3565b610269610322366004611c41565b610e78565b6008546102319073ffffffffffffffffffffffffffffffffffffffff1681565b610231610355366004611a50565b610f0c565b6101ee610fb1565b610287610370366004611ab7565b610fbe565b610269610383366004611c7e565b61104c565b6101ee61117a565b61026961039e366004611ca0565b611187565b6102876103b1366004611a50565b600b6020526000908152604090205481565b6102696103d1366004611d1c565b61121e565b6102876103e4366004611ab7565b61135b565b6102876113f0565b6101ee6103ff366004611a50565b611406565b6101d1610412366004611d8f565b600560209081526000928352604080842090915290825290205460ff1681565b610287610440366004611dbd565b6114c6565b60007f01ffc9a7000000000000000000000000000000000000000000000000000000007fffffffff00000000000000000000000000000000000000000000000000000000831614806104d857507f80ac58cd000000000000000000000000000000000000000000000000000000007fffffffff000000000000000000000000000000000000000000000000000000008316145b8061052457507f5b5e139f000000000000000000000000000000000000000000000000000000007fffffffff000000000000000000000000000000000000000000000000000000008316145b92915050565b6000805461053790611dff565b80601f016020809104026020016040519081016040528092919081815260200182805461056390611dff565b80156105b05780601f10610585576101008083540402835291602001916105b0565b820191906000526020600020905b81548152906001019060200180831161059357829003601f168201915b505050505081565b60008181526002602052604090205473ffffffffffffffffffffffffffffffffffffffff163381148061061b575073ffffffffffffffffffffffffffffffffffffffff8116600090815260056020908152604080832033845290915290205460ff165b61066c5760405162461bcd60e51b815260206004820152600e60248201527f4e4f545f415554484f52495a454400000000000000000000000000000000000060448201526064015b60405180910390fd5b60008281526004602052604080822080547fffffffffffffffffffffffff00000000000000000000000000000000000000001673ffffffffffffffffffffffffffffffffffffffff87811691821790925591518593918516917f8c5be1e5ebec7d5bd14f71427d1e84f3dd0314c0f7b2291e5b200ac8c7c3b92591a4505050565b60075473ffffffffffffffffffffffffffffffffffffffff163373ffffffffffffffffffffffffffffffffffffffff161461076a5760405162461bcd60e51b815260206004820152600b60248201527f4f6e6c79206f776e6572210000000000000000000000000000000000000000006044820152606401610663565b600780547fffffffffffffffffffffffff00000000000000000000000000000000000000001673ffffffffffffffffffffffffffffffffffffffff92909216919091179055565b60075473ffffffffffffffffffffffffffffffffffffffff163373ffffffffffffffffffffffffffffffffffffffff161461082e5760405162461bcd60e51b815260206004820152600b60248201527f4f6e6c79206f776e6572210000000000000000000000000000000000000000006044820152606401610663565b600880547fffffffffffffffffffffffff00000000000000000000000000000000000000001673ffffffffffffffffffffffffffffffffffffffff92909216919091179055565b6000826040516020016108889190611e52565b604080517fffffffffffffffffffffffffffffffffffffffffffffffffffffffffffffffe081840301815291815281516020928301206000818152600a9093529120549091501561091b5760405162461bcd60e51b815260206004820152601660248201527f50726f66696c6520616c726561647920657869737473000000000000000000006044820152606401610663565b6009546000828152600a6020526040902081905561093a908390611527565b60016009600082825461094d9190611e9d565b90915550506000818152600a60209081526040918290205482519081529081018390527f3ce65bceb7aec23365ee386283e10e6b0130805e87cecdaaa58fbc42633f00df910160405180910390a1505050565b60075473ffffffffffffffffffffffffffffffffffffffff163373ffffffffffffffffffffffffffffffffffffffff1614610a1d5760405162461bcd60e51b815260206004820152600b60248201527f4f6e6c79206f776e6572210000000000000000000000000000000000000000006044820152606401610663565b60008181526002602052604090205473ffffffffffffffffffffffffffffffffffffffff848116911614610a935760405162461bcd60e51b815260206004820152600a60248201527f57524f4e475f46524f4d000000000000000000000000000000000000000000006044820152606401610663565b73ffffffffffffffffffffffffffffffffffffffff8216610af65760405162461bcd60e51b815260206004820152601160248201527f494e56414c49445f524543495049454e540000000000000000000000000000006044820152606401610663565b3373ffffffffffffffffffffffffffffffffffffffff84161480610b4a575073ffffffffffffffffffffffffffffffffffffffff8316600090815260056020908152604080832033845290915290205460ff165b80610b78575060008181526004602052604090205473ffffffffffffffffffffffffffffffffffffffff1633145b610bc45760405162461bcd60e51b815260206004820152600e60248201527f4e4f545f415554484f52495a45440000000000000000000000000000000000006044820152606401610663565b73ffffffffffffffffffffffffffffffffffffffff808416600081815260036020908152604080832080547fffffffffffffffffffffffffffffffffffffffffffffffffffffffffffffffff019055938616808352848320805460010190558583526002825284832080547fffffffffffffffffffffffff00000000000000000000000000000000000000009081168317909155600490925284832080549092169091559251849392917fddf252ad1be2c89b69c2b068fc378daa952ba7f163c4a11628f55a4df523b3ef91a4505050565b610ca18383836109a0565b73ffffffffffffffffffffffffffffffffffffffff82163b15610dde576040517f150b7a020000000000000000000000000000000000000000000000000000000080825233600483015273ffffffffffffffffffffffffffffffffffffffff858116602484015260448301849052608060648401526000608484015290919084169063150b7a029060a4016020604051808303816000875af1158015610d4b573d6000803e3d6000fd5b505050506040513d601f19601f82011682018060405250810190610d6f9190611eb5565b7fffffffff000000000000000000000000000000000000000000000000000000001614610dde5760405162461bcd60e51b815260206004820152601060248201527f554e534146455f524543495049454e54000000000000000000000000000000006044820152606401610663565b505050565b6008546040517f6352211e0000000000000000000000000000000000000000000000000000000081526004810183905260009173ffffffffffffffffffffffffffffffffffffffff1690636352211e906024015b602060405180830381865afa158015610e54573d6000803e3d6000fd5b505050506040513d601f19601f820116820180604052508101906105249190611ed2565b60075473ffffffffffffffffffffffffffffffffffffffff163373ffffffffffffffffffffffffffffffffffffffff1614610ef55760405162461bcd60e51b815260206004820152600b60248201527f4f6e6c79206f776e6572210000000000000000000000000000000000000000006044820152606401610663565b8051610f089060069060208401906118e8565b5050565b6000818152600b602052604081205415610f88576008546000838152600b6020526040908190205490517f6352211e00000000000000000000000000000000000000000000000000000000815273ffffffffffffffffffffffffffffffffffffffff90921691636352211e91610e379160040190815260200190565b5060009081526002602052604090205473ffffffffffffffffffffffffffffffffffffffff1690565b6006805461053790611dff565b600073ffffffffffffffffffffffffffffffffffffffff82166110235760405162461bcd60e51b815260206004820152600c60248201527f5a45524f5f4144445245535300000000000000000000000000000000000000006044820152606401610663565b5073ffffffffffffffffffffffffffffffffffffffff1660009081526003602052604090205490565b600061105782610de3565b6000848152600b6020526040902054909150156110dc5760405162461bcd60e51b815260206004820152602360248201527f63616e6e6f74206c6f636b20616e20616c7265616479206c6f636b656420746f60448201527f6b656e00000000000000000000000000000000000000000000000000000000006064820152608401610663565b3373ffffffffffffffffffffffffffffffffffffffff8216146111675760405162461bcd60e51b815260206004820152603360248201527f4f6e6c7920746865204c656e732050726f66696c65206f776e65722063616e2060448201527f6c696265726174652074686569722064617461000000000000000000000000006064820152608401610663565b506000918252600b602052604090912055565b6001805461053790611dff565b33600081815260056020908152604080832073ffffffffffffffffffffffffffffffffffffffff87168085529083529281902080547fffffffffffffffffffffffffffffffffffffffffffffffffffffffffffffff001686151590811790915590519081529192917f17307eab39ab6107e8899845ad3d59bd9653f200f220920489ca2b5937696c31910160405180910390a35050565b6112298585856109a0565b73ffffffffffffffffffffffffffffffffffffffff84163b15611354576040517f150b7a02000000000000000000000000000000000000000000000000000000008082529073ffffffffffffffffffffffffffffffffffffffff86169063150b7a02906112a29033908a90899089908990600401611eef565b6020604051808303816000875af11580156112c1573d6000803e3d6000fd5b505050506040513d601f19601f820116820180604052508101906112e59190611eb5565b7fffffffff0000000000000000000000000000000000000000000000000000000016146113545760405162461bcd60e51b815260206004820152601060248201527f554e534146455f524543495049454e54000000000000000000000000000000006044820152606401610663565b5050505050565b6008546040517f92254a6200000000000000000000000000000000000000000000000000000000815273ffffffffffffffffffffffffffffffffffffffff838116600483015260009216906392254a6290602401602060405180830381865afa1580156113cc573d6000803e3d6000fd5b505050506040513d601f19601f820116820180604052508101906105249190611f6e565b600060016009546114019190611f87565b905090565b60606114118261168c565b61145d5760405162461bcd60e51b815260206004820152601160248201527f546f6b656e206d757374206578697374210000000000000000000000000000006044820152606401610663565b60006114676116b6565b905060006006805461147890611dff565b90501161149457604051806020016040528060008152506114bf565b8061149e84611748565b6040516020016114af929190611f9e565b6040516020818303038152906040525b9392505050565b60008083836040516020016114dc929190611fcd565b604080518083037fffffffffffffffffffffffffffffffffffffffffffffffffffffffffffffffe001815291815281516020928301206000908152600a909252902054949350505050565b73ffffffffffffffffffffffffffffffffffffffff821661158a5760405162461bcd60e51b815260206004820152601160248201527f494e56414c49445f524543495049454e540000000000000000000000000000006044820152606401610663565b60008181526002602052604090205473ffffffffffffffffffffffffffffffffffffffff16156115fc5760405162461bcd60e51b815260206004820152600e60248201527f414c52454144595f4d494e5445440000000000000000000000000000000000006044820152606401610663565b73ffffffffffffffffffffffffffffffffffffffff8216600081815260036020908152604080832080546001019055848352600290915280822080547fffffffffffffffffffffffff0000000000000000000000000000000000000000168417905551839291907fddf252ad1be2c89b69c2b068fc378daa952ba7f163c4a11628f55a4df523b3ef908290a45050565b60008061169883610f0c565b73ffffffffffffffffffffffffffffffffffffffff16141592915050565b6060600680546116c590611dff565b80601f01602080910402602001604051908101604052809291908181526020018280546116f190611dff565b801561173e5780601f106117135761010080835404028352916020019161173e565b820191906000526020600020905b81548152906001019060200180831161172157829003601f168201915b5050505050905090565b6060600061175583611806565b600101905060008167ffffffffffffffff81111561177557611775611ad4565b6040519080825280601f01601f19166020018201604052801561179f576020820181803683370190505b5090508181016020015b7fffffffffffffffffffffffffffffffffffffffffffffffffffffffffffffffff017f3031323334353637383961626364656600000000000000000000000000000000600a86061a8153600a85049450846117a957509392505050565b6000807a184f03e93ff9f4daa797ed6e38ed64bf6a1f010000000000000000831061184f577a184f03e93ff9f4daa797ed6e38ed64bf6a1f010000000000000000830492506040015b6d04ee2d6d415b85acef8100000000831061187b576d04ee2d6d415b85acef8100000000830492506020015b662386f26fc10000831061189957662386f26fc10000830492506010015b6305f5e10083106118b1576305f5e100830492506008015b61271083106118c557612710830492506004015b606483106118d7576064830492506002015b600a83106105245760010192915050565b8280546118f490611dff565b90600052602060002090601f016020900481019282611916576000855561195c565b82601f1061192f57805160ff191683800117855561195c565b8280016001018555821561195c579182015b8281111561195c578251825591602001919060010190611941565b5061196892915061196c565b5090565b5b80821115611968576000815560010161196d565b7fffffffff00000000000000000000000000000000000000000000000000000000811681146119af57600080fd5b50565b6000602082840312156119c457600080fd5b81356114bf81611981565b60005b838110156119ea5781810151838201526020016119d2565b838111156119f9576000848401525b50505050565b6020815260008251806020840152611a1e8160408501602087016119cf565b601f017fffffffffffffffffffffffffffffffffffffffffffffffffffffffffffffffe0169190910160400192915050565b600060208284031215611a6257600080fd5b5035919050565b73ffffffffffffffffffffffffffffffffffffffff811681146119af57600080fd5b60008060408385031215611a9e57600080fd5b8235611aa981611a69565b946020939093013593505050565b600060208284031215611ac957600080fd5b81356114bf81611a69565b7f4e487b7100000000000000000000000000000000000000000000000000000000600052604160045260246000fd5b600082601f830112611b1457600080fd5b813567ffffffffffffffff80821115611b2f57611b2f611ad4565b604051601f83017fffffffffffffffffffffffffffffffffffffffffffffffffffffffffffffffe0908116603f01168101908282118183101715611b7557611b75611ad4565b81604052838152866020858801011115611b8e57600080fd5b836020870160208301376000602085830101528094505050505092915050565b60008060408385031215611bc157600080fd5b823567ffffffffffffffff811115611bd857600080fd5b611be485828601611b03565b9250506020830135611bf581611a69565b809150509250929050565b600080600060608486031215611c1557600080fd5b8335611c2081611a69565b92506020840135611c3081611a69565b929592945050506040919091013590565b600060208284031215611c5357600080fd5b813567ffffffffffffffff811115611c6a57600080fd5b611c7684828501611b03565b949350505050565b60008060408385031215611c9157600080fd5b50508035926020909101359150565b60008060408385031215611cb357600080fd5b8235611cbe81611a69565b915060208301358015158114611bf557600080fd5b60008083601f840112611ce557600080fd5b50813567ffffffffffffffff811115611cfd57600080fd5b602083019150836020828501011115611d1557600080fd5b9250929050565b600080600080600060808688031215611d3457600080fd5b8535611d3f81611a69565b94506020860135611d4f81611a69565b935060408601359250606086013567ffffffffffffffff811115611d7257600080fd5b611d7e88828901611cd3565b969995985093965092949392505050565b60008060408385031215611da257600080fd5b8235611dad81611a69565b91506020830135611bf581611a69565b60008060208385031215611dd057600080fd5b823567ffffffffffffffff811115611de757600080fd5b611df385828601611cd3565b90969095509350505050565b600181811c90821680611e1357607f821691505b602082108103611e4c577f4e487b7100000000000000000000000000000000000000000000000000000000600052602260045260246000fd5b50919050565b60008251611e648184602087016119cf565b9190910192915050565b7f4e487b7100000000000000000000000000000000000000000000000000000000600052601160045260246000fd5b60008219821115611eb057611eb0611e6e565b500190565b600060208284031215611ec757600080fd5b81516114bf81611981565b600060208284031215611ee457600080fd5b81516114bf81611a69565b600073ffffffffffffffffffffffffffffffffffffffff808816835280871660208401525084604083015260806060830152826080830152828460a0840137600060a0848401015260a07fffffffffffffffffffffffffffffffffffffffffffffffffffffffffffffffe0601f85011683010190509695505050505050565b600060208284031215611f8057600080fd5b5051919050565b600082821015611f9957611f99611e6e565b500390565b60008351611fb08184602088016119cf565b835190830190611fc48183602088016119cf565b01949350505050565b818382376000910190815291905056fea2646970667358221220933ecdaefd0d854959958df6812048d934de8b702723a219ab429e77dc801faa64736f6c634300080e0033",
    "linkReferences": {}
  },
  "methodIdentifiers": {
    "approve(address,uint256)": "095ea7b3",
    "authorized()": "456cb7c6",
    "balanceOf(address)": "70a08231",
    "baseURI()": "6c0360eb",
    "getApproved(uint256)": "081812fc",
    "getTotalSupply()": "c4e41b22",
    "handleToTokenId(string)": "f481079b",
    "isApprovedForAll(address,address)": "e985e9c5",
    "lensHubAddress()": "5dfadbdb",
    "lockProfile(uint256,uint256)": "8a571bb2",
    "lockedId(uint256)": "b75d20e7",
    "mint(string,address)": "1c351a9d",
    "name()": "06fdde03",
    "ownerOf(uint256)": "6352211e",
    "profileIdOfAddress(address)": "c2cfe027",
    "profileOwnerOf(uint256)": "4c36904f",
    "safeTransferFrom(address,address,uint256)": "42842e0e",
    "safeTransferFrom(address,address,uint256,bytes)": "b88d4fde",
    "setApprovalForAll(address,bool)": "a22cb465",
    "setBaseURI(string)": "55f804b3",
    "setLensHubAddress(address)": "195d5a76",
    "setOwner(address)": "13af4035",
    "supportsInterface(bytes4)": "01ffc9a7",
    "symbol()": "95d89b41",
    "tokenURI(uint256)": "c87b56dd",
    "totalSupply()": "18160ddd",
    "transferFrom(address,address,uint256)": "23b872dd"
  },
  "id": 15
}